:100000000C9435000C945D000C945D000C945D0024
:100010000C945D000C945D000C945D000C945D00EC
:100020000C945D000C945D000C945D000C945D00DC
:100030000C945D000C945D000C945D000C945D00CC
:100040000C946A050C945D000C9433010C940D0122
:100050000C945D000C945D000C945D000C945D00AC
:100060000C945D000C945D00340A11241FBECFEF88
:10007000D8E0DEBFCDBF22E0AAE5B1E001C01D920D
:10008000AA3DB207E1F711E0A0E0B1E0E4E1F6E15A
:1000900002C005900D92AA35B107D9F710E0C5E36B
:1000A000D0E004C02197FE010E94FD0AC433D107AD
:1000B000C9F70E9489070C94080B0C94000008955E
:1000C00080E090E00895FC01538D448D252F30E0B1
:1000D000842F90E0821B930B541710F0CF96089555
:1000E00001970895FC01918D828D981761F0828DA2
:1000F000DF01A80FB11D5D968C91928D9F5F9F735C
:10010000928F90E008958FEF9FEF0895FC01918DFD
:10011000828D981731F0828DE80FF11D858D90E06A
:1001200008958FEF9FEF089580EE91E00E946501A2
:1001300021E0892B09F420E0822F0895EF92FF92AD
:100140000F931F93CF93DF93EC0181E0888F9B8DFA
:100150008C8D981305C0E889F989808185FD26C0BA
:10016000F62E0B8D10E00F5F1F4F0F731127E02E3F
:100170008C8DE8120CC00FB607FCFACFE889F9891C
:10018000808185FFF5CFCE010E947302F1CF8B8D68
:10019000FE01E80FF11DE35AFF4FF0829FB7F8947C
:1001A0000B8FEA89FB89808180620AC09FB7F8942F
:1001B000EE89FF896083E889F98980818370806492
:1001C00080839FBF81E090E0DF91CF911F910F91DD
:1001D000FF90EF900895CF93DF93EC01888D8823F3
:1001E000C9F0EA89FB89808185FD05C0A889B989A4
:1001F0008C9186FD0FC00FB607FCF5CF808185FF7F
:10020000F2CFA889B9898C9185FFEDCFCE010E94EC
:100210007302E7CFDF91CF9108951F920F920FB62F
:100220000F9211242F933F934F935F936F937F937C
:100230008F939F93AF93BF93EF93FF9380EE91E0E3
:100240000E947302FF91EF91BF91AF919F918F91A7
:100250007F916F915F914F913F912F910F900FBEC2
:100260000F901F9018951F920F920FB60F921124A6
:100270002F938F939F93EF93FF93E091F001F09171
:10028000F1018081E091F601F091F70182FD12C049
:1002900090818091F9018F5F8F732091FA0182170D
:1002A00051F0E091F901F0E0E052FE4F958F80931C
:1002B000F90101C08081FF91EF919F918F912F9162
:1002C0000F900FBE0F901F901895FC01918D228DFD
:1002D000892F90E0805C9F4F821B91098F73992733
:1002E000089580E090E0892B29F00E94940081110C
:1002F0000C94000008950F931F93CF93DF932091E8
:10030000D4012F5F322F37703093D40120FF02C009
:1003100020E801C020E031FD2064347009F0206243
:10032000205FFC01EC01239600E011E06485662368
:1003300031F070E0C8010E94CE0A6F5F01C060E03A
:100340006187322F369F030E30E0311D11243111A9
:1003500002C0168202C031503683662311F061500C
:1003600061873196CE17DF0709F7DF91CF911F9193
:100370000F91089580E991E00895209A08950F93D0
:100380001F93CF93DF93CDB7DEB762970FB6F89484
:10039000DEBF0FBECDBF8C01F901DC011C968C9134
:1003A0007A8369835C834B835E834D8390819D87D1
:1003B00091819E8792819F87813029F4CE01019699
:1003C0000E947B0106C01C861B861A861986188629
:1003D0001F8283E0888B1A8A198AD801ED91FC91DB
:1003E0000484F585E02DBE016F5F7F4FC80109953C
:1003F00062960FB6F894DEBF0FBECDBFDF91CF91EE
:100400001F910F9108950F931F93CF93DF93CDB753
:10041000DEB762970FB6F894DEBF0FBECDBF8C017A
:10042000F901DC011C968C917A8369835C834B8390
:100430005E834D8390819D8791819E8792819F8766
:10044000813029F4CE0101960E947B0106C01C86F2
:100450001B861A86198618861F82188A1A8A198A94
:10046000D801ED91FC910484F585E02DBE016F5F0C
:100470007F4FC801099562960FB6F894DEBF0FBE94
:10048000CDBFDF91CF911F910F91089580E090E053
:100490000895FC01858596850895CF93DF9300D05C
:1004A00000D000D0CDB7DEB7AB011C821D821E820A
:1004B000DC01ED91FC910190F081E02D19821A820E
:1004C0001B829E012F5F3F4FBE016C5F7F4F0995DE
:1004D00026960FB6F894DEBF0FBECDBFDF91CF9149
:1004E00008950E94030BFC01848DDF01A80FB11D4C
:1004F000A35ABF4F2C91848D90E001968F7399275A
:10050000848FA689B7892C93A089B1898C91837037
:1005100080648C93938D848D981306C00288F38930
:10052000E02D80818F7D808308958E3008F08E507D
:100530008770806480937C0080917A0080648093CF
:100540007A0080917A0086FDFCCF8091780020911E
:10055000790090E0922B08953FB7F8948091DA01EA
:100560009091DB01A091DC01B091DD0126B5A89B43
:1005700005C02F3F19F00196A11DB11D3FBFBA2F35
:10058000A92F982F8827820F911DA11DB11DBC0195
:10059000CD0142E0660F771F881F991F4A95D1F75A
:1005A00008958F929F92AF92BF92CF92DF92EF9277
:1005B000FF926B017C010E94AC024B015C01C114F3
:1005C000D104E104F104F1F00E94AC02DC01CB01A2
:1005D00088199909AA09BB09883E9340A105B1056C
:1005E00070F321E0C21AD108E108F10888EE880E04
:1005F00083E0981EA11CB11CC114D104E104F104D4
:1006000019F7DDCFFF90EF90DF90CF90BF90AF90C4
:100610009F908F9008954F925F926F927F928F92EA
:10062000AF92BF92CF92DF92EF920F931F93CF932F
:10063000DF933C01EB010E94AC02F3012785308976
:10064000621B730B6A307105B0F3F894E881F9818D
:1006500075B1716065B16E7F65B9CA848F812C2DCB
:10066000281B822F2F83BF844A805B801D850C85C9
:10067000DE841F5F0F5FD3949E813885A984EB844D
:100680004181D20120E0C32F522F322F31814427E4
:1006900088943111380F08F43FEF8195889410FD4C
:1006A000430F4795889411FD430F4795889412FD99
:1006B000430F4795889413FD430F4795889414FD85
:1006C000430F4795889415FD430F4795889416FD71
:1006D000430F4795889417FD430F47958894232F20
:1006E0001111242F8C0D422F002C75B900C047FF2B
:1006F00065B930812227889400C000C0002C65B9FC
:100700003111390F00C0002C75B900C046FF65B922
:1007100008F43FEF9195889400C000C0002C65B9A3
:1007200000FD230F00C0002C75B900C045FF65B95E
:100730002795889401FD230F00C000C0002C65B9E7
:100740002795889400C0002C75B900C044FF65B996
:1007500002FD230F2795889400C000C0002C65B9C6
:1007600003FD230F00C0002C75B900C043FF65B91D
:100770002795889404FD230F00C000C0002C65B9A4
:100780002795889400C0002C75B900C042FF65B958
:1007900005FD230F2795889400C000C0002C65B983
:1007A00006FD230F00C0002C75B900C041FF65B9DC
:1007B0002795889407FD230F00C000C0002C65B961
:1007C0002795889400C0002C75B900C040FF65B91A
:1007D000432F0111422F9A0D00C000C0002C65B9B3
:1007E00000C000C0002C75B900C047FF65B9328158
:1007F0002227889400C000C0002C65B931113C0F3D
:1008000000C0002C75B900C046FF65B908F43FEF81
:10081000EB0DF11D00C000C0002C65B9D0FC230F0A
:1008200000C0002C75B900C045FF65B927958894B4
:10083000D1FC230F00C000C0002C65B92795889417
:1008400000C0002C75B900C044FF65B9D2FC230F6D
:100850002795889400C000C0002C65B9D3FC230FF5
:1008600000C0002C75B900C043FF65B92795889476
:10087000D4FC230F00C000C0002C65B927958894D4
:1008800000C0002C75B900C042FF65B9D5FC230F2C
:100890002795889400C000C0002C65B9D6FC230FB2
:1008A00000C0002C75B900C041FF65B92795889438
:1008B000D7FC230F00C000C0002C65B92795889491
:1008C00000C0002C75B900C040FF65B9432FD1109E
:1008D000422FC19500C000C0002C65B9CE0D00C0EC
:1008E00000C075B900C047FF65B9318122278894DF
:1008F00000C000C0002C65B93111380F00C0002CB9
:1009000075B900C046FF65B908F43FEF819588943A
:1009100000C000C0002C65B910FD230F00C0002CE2
:1009200075B900C045FF65B92795889411FD230F5F
:1009300000C000C0002C65B92795889400C0002C29
:1009400075B900C044FF65B912FD230F279588943F
:1009500000C000C0002C65B913FD230F00C0002C9F
:1009600075B900C043FF65B92795889414FD230F1E
:1009700000C000C0002C65B92795889400C0002CE9
:1009800075B900C042FF65B915FD230F27958894FE
:1009900000C000C0002C65B916FD230F00C0002C5C
:1009A00075B900C041FF65B92795889417FD230FDD
:1009B00000C000C0002C65B92795889400C0002CA9
:1009C00075B900C040FF65B9432F1111422F8C0D3E
:1009D00000C000C0002C65B9119709F086CE20EE4A
:1009E00031E0D2010E94E20ADC01CB01F4E0B695CD
:1009F000A79597958795FA95D1F720E030E0B90152
:100A0000EAE94E9E040C611D5E9E600D711D11246D
:100A1000650D711D860F971FA11DB11D893E43E015
:100A20009407A105B10508F434C0885E9340A1097C
:100A3000B10942E0B695A795979587954A95D1F764
:100A400047E0849F080E211D949F200D311D112425
:100A5000290F311D6091D30170E0860F971F820F1F
:100A6000931F4091D6015091D7016091D8017091A8
:100A7000D901292F3327420F531F611D711D409348
:100A8000D6015093D7016093D8017093D901809318
:100A9000D30178940E94AC02F301708B6787DF91D9
:100AA000CF911F910F91EF90DF90CF90BF90AF90BB
:100AB0008F907F906F905F904F9008952FB7F8942C
:100AC0006091D6017091D7018091D8019091D901A0
:100AD0002FBF08951F920F920FB60F9211242F93DC
:100AE0003F938F939F93AF93BF938091D601909143
:100AF000D701A091D801B091D9013091D50123E05F
:100B0000230F2D3720F40196A11DB11D05C026E845
:100B1000230F0296A11DB11D2093D5018093D6010C
:100B20009093D701A093D801B093D9018091DA01B5
:100B30009091DB01A091DC01B091DD010196A11D36
:100B4000B11D8093DA019093DB01A093DC01B09397
:100B5000DD01BF91AF919F918F913F912F910F90A8
:100B60000FBE0F901F901895EAE5F1E08083618336
:100B70004283339691E0E43BF907C1F78091C302C9
:100B80000C94EC05CF92DF92EF92FF920F931F939C
:100B9000CF93DF936C017A018B01C0E0D0E0CE15DA
:100BA000DF0581F0D8016D918D01D601ED91FC91A9
:100BB0000190F081E02DC6010995892B11F0219655
:100BC000EECF7E01C701DF91CF911F910F91FF9072
:100BD000EF90DF90CF9008953F924F925F926F9287
:100BE0007F928F929F92AF92BF92CF92DF92EF92BD
:100BF000FF920F931F93CF93DF9300D01F92CDB737
:100C0000DEB7F82E8091C6029091C702A091C8026B
:100C1000B091C902892B8A2B8B2BE9F00E94AC0280
:100C20000091D6021091D7022091D8023091D902BA
:100C3000DC01CB01801B910BA20BB30B0091C60210
:100C40001091C7022091C8023091C9028017910704
:100C5000A207B307B8F20E94AC026093D602709369
:100C6000D7028093D8029093D902E091CE02F091FE
:100C7000CF02309759F04091CA025091CB02609157
:100C8000CC027091CD028F2D0995F82E0091DE01D6
:100C90001091DF014F2C512C612C712C0115110585
:100CA00009F45FC0D8011C96EC901C978091C40297
:100CB0009091C5028436910510F41C961C92D801BF
:100CC000ED91FC91A280B38019821A821B82F110EF
:100CD00014C0F80145855685628173819E012F5F9E
:100CE0003F4FC801F5010995D8011C96EC921C975D
:100CF00014960D911C911597D1CFF8013696CE011F
:100D000001966C01480199E0890E911C21912223E2
:100D100009F132803320F1F0822F90E0A0E0B0E0C2
:100D20009C01AD012F5F3F4F4F4F5F4FC301B20199
:100D30000E94820A9B01AC01832D90E0A0E0B0E00C
:100D4000BC01CD016F5F7F4F8F4F9F4F0E94820A82
:100D5000D6018C93BFEFCB1ADB0AE815F905B1F683
:100D6000B8CF8091D4029091D5028C010F5F1F4FB4
:100D70001093D5020093D40249979CF10E945E051E
:100D80004B015C0188EE93E0089FB001099F700D54
:100D9000189F700D1124072E000C880B990BC09022
:100DA000D002D090D102E090D202F090D302A501FF
:100DB00094012C193D094E095F090E94920A309353
:100DC000C5022093C4021092D5021092D4020E9450
:100DD0005E056093D0027093D1028093D20290930B
:100DE000D3020F900F900F90DF91CF911F910F9131
:100DF000FF90EF90DF90CF90BF90AF909F908F903B
:100E00007F906F905F904F903F900895009769F0AA
:100E1000FC0101900020E9F73197AF01481B590B05
:100E2000BC0180EE91E00C94C20580E090E0089552
:100E30008F929F92AF92BF920F931F93CF93DF93A6
:100E4000CDB7DEB7A1970FB6F894DEBF0FBECDBF0A
:100E500019A2423008F44AE08E010F5D1F4F842E24
:100E6000912CA12CB12CA50194010E94920AE62F8D
:100E7000B901CA0101501109EA3014F4E05D01C062
:100E8000E95CD801EC93232B242B252B61F7C801B7
:100E90000E940607A1960FB6F894DEBF0FBECDBF25
:100EA000DF91CF911F910F91BF90AF909F908F9046
:100EB0000895CF92DF92EF92FF92CF93DF936C0170
:100EC000990FEE08FF08F7FE19C06DE280EE91E081
:100ED0000E949E00EC0166277727CB016C197D09E3
:100EE0008E099F094AE00E9418078C0F9D1FDF9111
:100EF000CF91FF90EF90DF90CF9008954AE0C70127
:100F0000B601DF91CF91FF90EF90DF90CF900C94DE
:100F10001807789484B5826084BD84B5816084BDEF
:100F200085B5826085BD85B5816085BD80916E0087
:100F3000816080936E0010928100809181008260B8
:100F400080938100809181008160809381008091F5
:100F500080008160809380008091B10084608093E4
:100F6000B1008091B00081608093B00080917A00E0
:100F7000846080937A0080917A00826080937A0006
:100F800080917A00816080937A0080917A008068F5
:100F900080937A001092C1001092BF021092C0029A
:100FA0001092C1021092C20210927F02109280022F
:100FB00010928102109282020E945E056B017C01F8
:100FC0004B015C0128EB820E2BE0921EA11CB11C90
:100FD0000E945E056C157D058E059F0528F086161E
:100FE0009706A806B906A0F760ED77E080E090E0EC
:100FF0000E94D102E091F001F091F10182E0808342
:10100000E091EC01F091ED011082E091EE01F091A0
:10101000EF0180E180831092F801E091F401F091FA
:10102000F50186E08083E091F201F091F301808187
:1010300080618083E091F201F091F301808188600A
:101040008083E091F201F091F301808180688083D8
:10105000E091F201F091F30180818F7D80830E9405
:101060005E0560937F02709380028093810290936B
:10107000820284E391E00E9406070E945E056B01F4
:101080007C014B015C013AE0830E911CA11CB11C58
:101090000E945E056C157D058E059F0528F086165D
:1010A0009706A806B906A0F791E090939302809165
:1010B000C701811144C01092B9011092B8018FEF9D
:1010C0008093BC018093BD018093BE018093BF01DA
:1010D0008093C0018093C1019093C2011092C4011A
:1010E0001092C3011092BB011092BA018091DE01EF
:1010F0009091DF01892B31F486EB91E09093DF0131
:101100008093DE01E091B401F091B501309721F0B8
:1011100086EB91E09583848386EB91E09093B50113
:101120008093B4011092C6011092C50184E191E050
:101130009093B7018093B60181E08093C701209A14
:101140008AE591E09093B9018093B8018EE190E037
:101150009093C4018093C3018091C6029091C7020D
:10116000A091C802B091C902843C49E09407A1054E
:10117000B10520F484EC99E0A0E0B0E08093C602D1
:101180009093C702A093C802B093C9028FEF8093D7
:10119000BC0180EB8093BD0180EF8093BE0184EFA2
:1011A000C82EDD24D394E12CF12C0E945E05672B20
:1011B000682B692B41F40E945E0562307105810540
:1011C000910508F4E3C00E945E050091CF011091E3
:1011D000D0012091D1013091D201601771078207AF
:1011E000930740F46093CF017093D0018093D101B5
:1011F0009093D2010091CF011091D0012091D101A3
:101200003091D2014B015C01801A910AA20AB30A03
:10121000950184010A3F11052105310508F4B6C086
:101220006093CF017093D0018093D1019093D2014C
:10123000C0928B02D0928C02E0928D02F0928E02CC
:1012400010928F02109290021092910210929202CC
:101250008091830290918402A0918502B0918602D0
:101260008093870290938802A0938902B0938A02A8
:101270000E945E05609383027093840280938502CE
:10128000909386020E945E0560937F0270938002B5
:1012900080938102909382020E945E054B015C0163
:1012A00086E491E00E9406074AE061E070E080E099
:1012B00090E00E9418078DE491E00E9406074AE042
:1012C000C501B4010E9418078FE491E00E9406074F
:1012D0008091830290918402A0918502B091860250
:1012E000A5019401281B390B4A0B5B0BCA01B901FC
:1012F0004AE00E9418078FE491E00E94060780915F
:10130000830290918402A0918502B091860200919F
:101310008702109188022091890230918A02BC01D3
:10132000CD01601B710B820B930B4AE00E941807E2
:1013300081E591E00E9406070E945E054AE00E9456
:10134000180783E591E00E94060783E491E00E947C
:1013500006070E945E054B015C012B013C0135E054
:10136000430E511C611C711C0E945E0568157905B5
:101370008A059B0508F071C00E945E056093830298
:101380007093840280938502909386028FE00E947E
:1013900095020E94590783E491E00E94060780E1CC
:1013A0000E9495020E94590783E491E00E9406077B
:1013B00062E370E080E090E00E94D102C0E0D0E003
:1013C00000E010E0C130D10539F0C230D10539F06C
:1013D00040E060E0802F06C040E0602F02C0402F58
:1013E00060E080E00E94B4058091C3020E94EC0599
:1013F00063E070E080E090E00E94D1020F5F1F4F39
:10140000011541E01407F1F60FEF10E0C130D105EE
:1014100039F0C230D10539F040E060E0802F06C0DD
:1014200040E0602F02C0402F60E080E00E94B405E1
:101430008091C3020E94EC0563E070E080E090E0E0
:101440000E94D1020150110908F72196C330D1053D
:1014500009F0B6CF0E947101A8CE4616570668065D
:10146000790608F081CF88CFE0EEF1E01382128296
:1014700088EE93E0A0E0B0E084839583A683B783F1
:1014800086E291E09183808385EC90E09587848764
:1014900084EC90E09787868780EC90E0918B808B3E
:1014A00081EC90E0938B828B82EC90E0958B848B27
:1014B00086EC90E0978B868B118E128E138E148E95
:1014C000EDE7F2E0168217821086118612861386E7
:1014D0001486158616861786108A118A128A138A30
:1014E000148A158AE3ECF2E08FEF80831282118276
:1014F000148613868FEF9FEFDC0187839087A18787
:10150000B2870895DB018F939F930E94B40ABF9125
:10151000AF91A29F800D911DA39F900DB29F900D42
:1015200011240895A1E21A2EAA1BBB1BFD010DC0B8
:10153000AA1FBB1FEE1FFF1FA217B307E407F50783
:1015400020F0A21BB30BE40BF50B661F771F881F5F
:10155000991F1A9469F760957095809590959B01F5
:10156000AC01BD01CF0108950E94BF0AA59F900D57
:10157000B49F900DA49F800D911D11240895A29FEA
:10158000B001B39FC001A39F700D811D1124911D57
:10159000B29F700D811D1124911D089597FB072E98
:1015A00016F4009407D077FD09D00E94E90A07FCE1
:1015B00005D03EF4909581959F4F08957095619563
:1015C0007F4F08950E94BF0AB7FF0895821B930BB7
:1015D0000895AA1BBB1B51E107C0AA1FBB1FA6177A
:1015E000B70710F0A61BB70B881F991F5A95A9F7CC
:1015F00080959095BC01CD010895EE0FFF1F0590D9
:10160000F491E02D099481E090E0F8940C94080B9B
:04161000F894FFCF7C
:10161400000000007102710271024D02490246028B
:10162400000000000302BF01BD014D024902BA01DE
:101634000B03000000009E00C2056300EB0065017F
:1016440072008600564D4450565F317C315F564DD2
:101654004450560D0A00564D4450455F003A323A04
:0A166400007C005F564D4450450025
:107E0000112484B714BE81FFF0D085E080938100F7
:107E100082E08093C00088E18093C10086E0809377
:107E2000C20080E18093C4008EE0C9D0259A86E02C
:107E300020E33CEF91E0309385002093840096BBD3
:107E4000B09BFECF1D9AA8958150A9F7CC24DD24C4
:107E500088248394B5E0AB2EA1E19A2EF3E0BF2EE7
:107E6000A2D0813461F49FD0082FAFD0023811F036
:107E7000013811F484E001C083E08DD089C08234E0
:107E800011F484E103C0853419F485E0A6D080C0E4
:107E9000853579F488D0E82EFF2485D0082F10E0AE
:107EA000102F00270E291F29000F111F8ED06801E7
:107EB0006FC0863521F484E090D080E0DECF843638
:107EC00009F040C070D06FD0082F6DD080E0C81688
:107ED00080E7D80618F4F601B7BEE895C0E0D1E017
:107EE00062D089930C17E1F7F0E0CF16F0E7DF06D8
:107EF00018F0F601B7BEE89568D007B600FCFDCFD4
:107F0000A601A0E0B1E02C9130E011968C91119780
:107F100090E0982F8827822B932B1296FA010C0160
:107F200087BEE89511244E5F5F4FF1E0A038BF0790
:107F300051F7F601A7BEE89507B600FCFDCF97BE46
:107F4000E89526C08437B1F42ED02DD0F82E2BD052
:107F50003CD0F601EF2C8F010F5F1F4F84911BD097
:107F6000EA94F801C1F70894C11CD11CFA94CF0C13
:107F7000D11C0EC0853739F428D08EE10CD085E9AC
:107F80000AD08FE07ACF813511F488E018D01DD067
:107F900080E101D065CF982F8091C00085FFFCCF94
:107FA0009093C60008958091C00087FFFCCF809118
:107FB000C00084FD01C0A8958091C6000895E0E648
:107FC000F0E098E1908380830895EDDF803219F02E
:107FD00088E0F5DFFFCF84E1DECF1F93182FE3DFCA
:107FE0001150E9F7F2DF1F91089580E0E8DFEE27F6
:047FF000FF270994CA
:027FFE00040479
:0400000300007E007B
:00000001FF