:100000000C9435000C945D000C945D000C945D0024
:100010000C945D000C945D000C945D000C945D00EC
:100020000C945D000C945D000C945D000C945D00DC
:100030000C945D000C945D000C945D000C945D00CC
:100040000C946A050C945D000C9438050C94120510
:100050000C945D000C945D000C945D000C945D00AC
:100060000C945D000C945D00BF0811241FBECFEFFF
:10007000D8E0DEBFCDBF22E0AAE5B1E001C01D920D
:10008000A03DB207E1F711E0A0E0B1E0E4EFF2E15A
:1000900002C005900D92AA35B107D9F710E0C5E36B
:1000A000D0E004C02197FE010E946D09C433D1073E
:1000B000C9F70E9461060C9478090C94000080E94D
:1000C00091E00895089580E090E00895FC01538D3B
:1000D000448D252F30E0842F90E0821B930B541722
:1000E00010F0CF96089501970895FC01918D828DAF
:1000F000981761F0828DDF01A80FB11D5D968C917C
:10010000928D9F5F9F73928F90E008958FEF9FEF86
:100110000895FC01918D828D981731F0828DE80F42
:10012000F11D858D90E008958FEF9FEF0895FC01FC
:10013000918D228D892F90E0805C9F4F821B9109C9
:100140008F739927089580EE91E00E94970021E037
:10015000892B09F420E0822F0895FC01848DDF01B2
:10016000A80FB11DA35ABF4F2C91848D90E001962A
:100170008F739927848FA689B7892C93A089B18919
:100180008C91837080648C93938D848D981306C0BA
:100190000288F389E02D80818F7D80830895EF921E
:1001A000FF920F931F93CF93DF93EC0181E0888F31
:1001B0009B8D8C8D981305C0E889F989808185FD18
:1001C00026C0F62E0B8D10E00F5F1F4F0F73112707
:1001D000E02E8C8DE8120CC00FB607FCFACFE88930
:1001E000F989808185FFF5CFCE010E94AD00F1CF66
:1001F0008B8DFE01E80FF11DE35AFF4FF0829FB790
:10020000F8940B8FEA89FB89808180620AC09FB7CE
:10021000F894EE89FF896083E889F9898081837089
:10022000806480839FBF81E090E0DF91CF911F9138
:100230000F91FF90EF900895CF93DF93EC01888D9D
:100240008823C9F0EA89FB89808185FD05C0A889DA
:10025000B9898C9186FD0FC00FB607FCF5CF808160
:1002600085FFF2CFA889B9898C9185FFEDCFCE01AA
:100270000E94AD00E7CFDF91CF91089580E090E03C
:10028000892B29F00E94A30081110C94000008958D
:100290008E3008F08E508770806480937C0080914F
:1002A0007A00806480937A0080917A0086FDFCCF8A
:1002B000809178002091790090E0922B08953FB7CB
:1002C000F8948091610190916201A0916301B091D5
:1002D000640126B5A89B05C02F3F19F00196A11D0A
:1002E000B11D3FBFBA2FA92F982F8827820F911DCC
:1002F000A11DB11DBC01CD0142E0660F771F881F13
:10030000991F4A95D1F708958F929F92AF92BF920D
:10031000CF92DF92EF92FF926B017C010E945F010E
:100320004B015C01C114D104E104F104F1F00E941D
:100330005F01DC01CB0188199909AA09BB09883E34
:100340009340A105B10570F321E0C21AD108E1087C
:10035000F10888EE880E83E0981EA11CB11CC11420
:10036000D104E104F10419F7DDCFFF90EF90DF90A5
:10037000CF90BF90AF909F908F9008952FB7F89433
:1003800060915D0170915E0180915F0190916001CB
:100390002FBF08950F931F93CF93DF9320915B019D
:1003A0002F5F322F377030935B0120FF02C020E8AF
:1003B00001C020E031FD2064347009F02062205F2C
:1003C000FC01EC01239600E011E06485662331F026
:1003D00070E0C8010E943E096F5F01C060E0618764
:1003E000322F369F030E30E0311D1124311102C02F
:1003F000168202C031503683662311F06150618746
:100400003196CE17DF0709F7DF91CF911F910F913A
:1004100008954F925F926F927F928F92AF92BF92A8
:10042000CF92DF92EF920F931F93CF93DF933C0114
:10043000EB010E945F01F30127853089621B730B7A
:100440006A307105B0F3F894E881F98175B1716093
:1004500065B16E7F65B9CA848F812C2D281B822FD0
:100460002F83BF844A805B801D850C85DE841F5FDF
:100470000F5FD3949E813885A984EB844181D2019A
:1004800020E0C32F522F322F31814427889431111D
:10049000380F08F43FEF8195889410FD430F47957E
:1004A000889411FD430F4795889412FD430F47959B
:1004B000889413FD430F4795889414FD430F479587
:1004C000889415FD430F4795889416FD430F479573
:1004D000889417FD430F47958894232F1111242FDB
:1004E0008C0D422F002C75B900C047FF65B93081D3
:1004F0002227889400C000C0002C65B93111390F43
:1005000000C0002C75B900C046FF65B908F43FEF84
:100510009195889400C000C0002C65B900FD230FA0
:1005200000C0002C75B900C045FF65B927958894B7
:1005300001FD230F00C000C0002C65B927958894E9
:1005400000C0002C75B900C044FF65B902FD230F3F
:100550002795889400C000C0002C65B903FD230FC7
:1005600000C0002C75B900C043FF65B92795889479
:1005700004FD230F00C000C0002C65B927958894A6
:1005800000C0002C75B900C042FF65B905FD230FFE
:100590002795889400C000C0002C65B906FD230F84
:1005A00000C0002C75B900C041FF65B9279588943B
:1005B00007FD230F00C000C0002C65B92795889463
:1005C00000C0002C75B900C040FF65B9432F011170
:1005D000422F9A0D00C000C0002C65B900C000C0B9
:1005E000002C75B900C047FF65B932812227889475
:1005F00000C000C0002C65B931113C0F00C0002CB8
:1006000075B900C046FF65B908F43FEFEB0DF11D69
:1006100000C000C0002C65B9D0FC230F00C0002C26
:1006200075B900C045FF65B927958894D1FC230FA3
:1006300000C000C0002C65B92795889400C0002C2C
:1006400075B900C044FF65B9D2FC230F2795889483
:1006500000C000C0002C65B9D3FC230F00C0002CE3
:1006600075B900C043FF65B927958894D4FC230F62
:1006700000C000C0002C65B92795889400C0002CEC
:1006800075B900C042FF65B9D5FC230F2795889442
:1006900000C000C0002C65B9D6FC230F00C0002CA0
:1006A00075B900C041FF65B927958894D7FC230F21
:1006B00000C000C0002C65B92795889400C0002CAC
:1006C00075B900C040FF65B9432FD110422FC195C5
:1006D00000C000C0002C65B9CE0D00C000C075B9C7
:1006E00000C047FF65B931812227889400C000C04F
:1006F000002C65B93111380F00C0002C75B900C04D
:1007000046FF65B908F43FEF8195889400C000C0AA
:10071000002C65B910FD230F00C0002C75B900C076
:1007200045FF65B92795889411FD230F00C000C0CF
:10073000002C65B92795889400C0002C75B900C0BD
:1007400044FF65B912FD230F2795889400C000C0AF
:10075000002C65B913FD230F00C0002C75B900C033
:1007600043FF65B92795889414FD230F00C000C08E
:10077000002C65B92795889400C0002C75B900C07D
:1007800042FF65B915FD230F2795889400C000C06E
:10079000002C65B916FD230F00C0002C75B900C0F0
:1007A00041FF65B92795889417FD230F00C000C04D
:1007B000002C65B92795889400C0002C75B900C03D
:1007C00040FF65B9432F1111422F8C0D00C000C0AE
:1007D000002C65B9119709F086CE20EE31E0D201E8
:1007E0000E945209DC01CB01F4E0B695A7959795DC
:1007F0008795FA95D1F720E030E0B901EAE94E9EFD
:10080000040C611D5E9E600D711D1124650D711D2E
:10081000860F971FA11DB11D893E43E09407A105D6
:10082000B10508F434C0885E9340A109B10942E0E3
:10083000B695A795979587954A95D1F747E0849FF8
:10084000080E211D949F200D311D1124290F311DEB
:1008500060915A0170E0860F971F820F931F40919D
:100860005D0150915E0160915F0170916001292FDF
:100870003327420F531F611D711D40935D0150933B
:100880005E0160935F017093600180935A017894D8
:100890000E945F01F301708B6787DF91CF911F91F9
:1008A0000F91EF90DF90CF90BF90AF908F907F909F
:1008B0006F905F904F900895209A08950F931F9323
:1008C000CF93DF93CDB7DEB762970FB6F894DEBF54
:1008D0000FBECDBF8C01F901DC011C968C917A838F
:1008E00069835C834B835E834D8390819D87918177
:1008F0009E8792819F87813029F4CE0101960E94C4
:10090000CA0106C01C861B861A86198618861F8295
:1009100083E0888B1A8A198AD801ED91FC910484AE
:10092000F585E02DBE016F5F7F4FC8010995629686
:100930000FB6F894DEBF0FBECDBFDF91CF911F91F0
:100940000F9108950F931F93CF93DF93CDB7DEB729
:1009500062970FB6F894DEBF0FBECDBF8C01F901D0
:10096000DC011C968C917A8369835C834B835E8364
:100970004D8390819D8791819E8792819F87813051
:1009800029F4CE0101960E94CA0106C01C861B866E
:100990001A86198618861F82188A1A8A198AD80117
:1009A000ED91FC910484F585E02DBE016F5F7F4FD2
:1009B000C801099562960FB6F894DEBF0FBECDBF91
:1009C000DF91CF911F910F91089580E090E00895FD
:1009D000FC01858596850895CF93DF9300D000D0E4
:1009E00000D0CDB7DEB7AB011C821D821E82DC01B8
:1009F000ED91FC910190F081E02D19821A821B8209
:100A00009E012F5F3F4FBE016C5F7F4F0995269679
:100A10000FB6F894DEBF0FBECDBFDF91CF91089522
:100A20000E9473091F920F920FB60F9211242F93F9
:100A30003F934F935F936F937F938F939F93AF9366
:100A4000BF93EF93FF9380EE91E00E94AD00FF9182
:100A5000EF91BF91AF919F918F917F916F915F9136
:100A60004F913F912F910F900FBE0F901F901895AF
:100A70001F920F920FB60F9211242F938F939F9373
:100A8000EF93FF93E091F001F091F1018081E0910B
:100A9000F601F091F70182FD12C090818091F90179
:100AA0008F5F8F732091FA01821751F0E091F90165
:100AB000F0E0E052FE4F958F8093F90101C08081F4
:100AC000FF91EF919F918F912F910F900FBE0F90FB
:100AD0001F9018951F920F920FB60F9211242F930B
:100AE0003F938F939F93AF93BF9380915D019091BC
:100AF0005E01A0915F01B091600130915C0123E043
:100B0000230F2D3720F40196A11DB11D05C026E845
:100B1000230F0296A11DB11D20935C0180935D01FE
:100B200090935E01A0935F01B09360018091610199
:100B300090916201A0916301B09164010196A11DA1
:100B4000B11D8093610190936201A0936301B09302
:100B50006401BF91AF919F918F913F912F910F9021
:100B60000FBE0F901F901895CF92DF92EF92FF92D9
:100B70000F931F93CF93DF936C017A018B01C0E039
:100B8000D0E0CE15DF0581F0D8016D918D01D60141
:100B9000ED91FC910190F081E02DC6010995892B22
:100BA00011F02196EECF7E01C701DF91CF911F9109
:100BB0000F91FF90EF90DF90CF900895009769F02C
:100BC000FC0101900020E9F73197AF01481B590B58
:100BD000BC0180EE91E00C94B40580E090E00895B3
:100BE0008F929F92AF92BF920F931F93CF93DF93F9
:100BF000CDB7DEB7A1970FB6F894DEBF0FBECDBF5D
:100C000019A2423008F44AE08E010F5D1F4F842E76
:100C1000912CA12CB12CA50194010E940D09E62F65
:100C2000B901CA0101501109EA3014F4E05D01C0B4
:100C3000E95CD801EC93232B242B252B61F7C80109
:100C40000E94DE05A1960FB6F894DEBF0FBECDBFA1
:100C5000DF91CF911F910F91BF90AF909F908F9098
:100C60000895CF92DF92EF92FF92CF93DF936C01C2
:100C7000990FEE08FF08F7FE19C06DE280EE91E0D3
:100C80000E94CF00EC0166277727CB016C197D0904
:100C90008E099F094AE00E94F0058C0F9D1FDF918D
:100CA000CF91FF90EF90DF90CF9008954AE0C70179
:100CB000B601DF91CF91FF90EF90DF90CF900C9431
:100CC000F005789484B5826084BD84B5816084BD6C
:100CD00085B5826085BD85B5816085BD80916E00DA
:100CE000816080936E00109281008091810082600B
:100CF0008093810080918100816080938100809148
:100D000080008160809380008091B1008460809336
:100D1000B1008091B00081608093B00080917A0032
:100D2000846080937A0080917A00826080937A0058
:100D300080917A00816080937A0080917A00806847
:100D400080937A001092C1001092BF021092C002EC
:100D50001092C1021092C20210927F021092800281
:100D600010928102109282020E94BE016B017C01EE
:100D70004B015C0128EB820E2BE0921EA11CB11CE2
:100D80000E94BE016C157D058E059F0528F0861614
:100D90009706A806B906A0F760ED77E080E090E03E
:100DA0000E948401E091F001F091F10182E08083E2
:100DB000E091EC01F091ED011082E091EE01F091F3
:100DC000EF0180E180831092F801E091F401F0914D
:100DD000F50186E08083E091F201F091F3018081DA
:100DE00080618083E091F201F091F301808188605D
:100DF0008083E091F201F091F3018081806880832B
:100E0000E091F201F091F30180818F7D80830E9457
:100E1000BE0160937F027093800280938102909361
:100E2000820284E391E00E94DE050E94BE016B0114
:100E30007C014B015C013AE0830E911CA11CB11CAA
:100E40000E94BE016C157D058E059F0528F0861653
:100E50009706A806B906A0F791E0909393028091B7
:100E60007A01811144C010926C0110926B018FEFD6
:100E700080936F0180937001809371018093720160
:100E800080937301809374019093750110927701A0
:100E90001092760110926E0110926D01809167019F
:100EA00090916801892B31F489E691E09093680173
:100EB00080936701E0916501F0916601309721F020
:100EC00089E691E09583848389E691E090936601B9
:100ED00080936501109279011092780184E191E08C
:100EE00090936A018093690181E080937A01209A4E
:100EF00082E891E090936C0180936B018EE190E029
:100F000090937701809376018091C6029091C702F9
:100F1000A091C802B091C902843C49E09407A105A0
:100F2000B10520F484EC99E0A0E0B0E08093C60223
:100F30009093C702A093C802B093C9028FEF809329
:100F40006F0180EB8093700180EF8093710184EFDB
:100F5000882E99249394A12CB12C0E94BE01672B5A
:100F6000682B692B41F40E94BE0162307105810536
:100F7000910508F4E3C00E94BE01C090DC01D0904E
:100F8000DD01E090DE01F090DF016C157D058E053E
:100F90009F0540F46093DC017093DD018093DE01D6
:100FA0009093DF01C090DC01D090DD01E090DE0184
:100FB000F090DF019B01AC012C193D094E095F093E
:100FC00069017A013AEFC316D104E104F10408F48F
:100FD000B5C06093DC017093DD018093DE019093D6
:100FE000DF0180928B0290928C02A0928D02B092CF
:100FF0008E0210928F021092900210929102109223
:1010000092028091830290918402A0918502B09116
:1010100086028093870290938802A0938902B093FE
:101020008A020E94BE0160938302709384028093BF
:101030008502909386020E94BE0160937F027093A6
:10104000800280938102909382020E94BE016B0114
:101050007C0186E491E00E94DE054AE061E070E0F8
:1010600080E090E00E94F0058DE491E00E94DE05B2
:101070004AE0C701B6010E94F0058FE491E00E94AA
:10108000DE058091830290918402A0918502B09147
:101090008602A7019601281B390B4A0B5B0BCA017C
:1010A000B9014AE00E94F0058FE491E00E94DE055C
:1010B0008091830290918402A0918502B091860272
:1010C000C0908702D0908802E0908902F0908A0256
:1010D000BC01CD016C197D098E099F094AE00E946F
:1010E000F00581E591E00E94DE050E94BE014AE024
:1010F0000E94F00583E591E00E94DE0583E491E023
:101100000E94DE050E94BE016B017C012B013C01A7
:1011100035E0430E511C611C711C0E94BE016C1510
:101120007D058E059F0528F50E94BE016093830210
:101130007093840280938502909386028FE00E94D0
:1011400048010E94310683E491E00E94DE0580E1BF
:101150000E9448010E94310683E491E00E94DE056E
:1011600062E370E080E090E00E9484010E943E0112
:10117000F4CE461657066806790678F6D5CFE0EE27
:10118000F1E01382128288EE93E0A0E0B0E0848365
:101190009583A683B78386E291E09183808385EC73
:1011A00090E09587848784EC90E09787868780EC31
:1011B00090E0918B808B81EC90E0938B828B82EC22
:1011C00090E0958B848B86EC90E0978B868B118ECC
:1011D000128E138E148EEDE7F2E0168217821086BF
:1011E0001186128613861486158616861786108A2F
:1011F000118A128A138A148A158AE3ECF2E08FEFBF
:10120000808312821182148613868FEF9FEFDC0198
:1012100087839087A187B2870895A1E21A2EAA1B1F
:10122000BB1BFD010DC0AA1FBB1FEE1FFF1FA21796
:10123000B307E407F50720F0A21BB30BE40BF50B93
:10124000661F771F881F991F1A9469F7609570951C
:10125000809590959B01AC01BD01CF010895A29F9F
:10126000B001B39FC001A39F700D811D1124911D7A
:10127000B29F700D811D1124911D089597FB072EBB
:1012800016F4009407D077FD09D00E94590907FC95
:1012900005D03EF4909581959F4F08957095619586
:1012A0007F4F08950E942F09B7FF0895821B930B6B
:1012B0000895AA1BBB1B51E107C0AA1FBB1FA6179D
:1012C000B70710F0A61BB70B881F991F5A95A9F7EF
:1012D00080959095BC01CD010895EE0FFF1F0590FC
:1012E000F491E02D099481E090E0F8940C94780951
:0412F000F894FFCFA0
:1012F40000000000100510051005EC04E804E504E6
:1013040000000000A2045E045C04EC04E8045F0036
:10131400090200000000CF00B40566001C0197001C
:1013240075008900564D4450565F317C315F564DEF
:101334004450560D0A00564D4450455F003A323A27
:0A134400007C005F564D4450450048
:107E0000112484B714BE81FFF0D085E080938100F7
:107E100082E08093C00088E18093C10086E0809377
:107E2000C20080E18093C4008EE0C9D0259A86E02C
:107E300020E33CEF91E0309385002093840096BBD3
:107E4000B09BFECF1D9AA8958150A9F7CC24DD24C4
:107E500088248394B5E0AB2EA1E19A2EF3E0BF2EE7
:107E6000A2D0813461F49FD0082FAFD0023811F036
:107E7000013811F484E001C083E08DD089C08234E0
:107E800011F484E103C0853419F485E0A6D080C0E4
:107E9000853579F488D0E82EFF2485D0082F10E0AE
:107EA000102F00270E291F29000F111F8ED06801E7
:107EB0006FC0863521F484E090D080E0DECF843638
:107EC00009F040C070D06FD0082F6DD080E0C81688
:107ED00080E7D80618F4F601B7BEE895C0E0D1E017
:107EE00062D089930C17E1F7F0E0CF16F0E7DF06D8
:107EF00018F0F601B7BEE89568D007B600FCFDCFD4
:107F0000A601A0E0B1E02C9130E011968C91119780
:107F100090E0982F8827822B932B1296FA010C0160
:107F200087BEE89511244E5F5F4FF1E0A038BF0790
:107F300051F7F601A7BEE89507B600FCFDCF97BE46
:107F4000E89526C08437B1F42ED02DD0F82E2BD052
:107F50003CD0F601EF2C8F010F5F1F4F84911BD097
:107F6000EA94F801C1F70894C11CD11CFA94CF0C13
:107F7000D11C0EC0853739F428D08EE10CD085E9AC
:107F80000AD08FE07ACF813511F488E018D01DD067
:107F900080E101D065CF982F8091C00085FFFCCF94
:107FA0009093C60008958091C00087FFFCCF809118
:107FB000C00084FD01C0A8958091C6000895E0E648
:107FC000F0E098E1908380830895EDDF803219F02E
:107FD00088E0F5DFFFCF84E1DECF1F93182FE3DFCA
:107FE0001150E9F7F2DF1F91089580E0E8DFEE27F6
:047FF000FF270994CA
:027FFE00040479
:0400000300007E007B
:00000001FF